{
  "address": "0x681DA7CbB7Ade11CA1E51C4CB08300CafD749673",
  "abi": [
    {
      "inputs": [
        {
          "internalType": "address",
          "name": "target",
          "type": "address"
        },
        {
          "internalType": "address",
          "name": "avatar",
          "type": "address"
        },
        {
          "internalType": "address",
          "name": "owner",
          "type": "address"
        }
      ],
      "stateMutability": "nonpayable",
      "type": "constructor"
    },
    {
      "inputs": [
        {
          "internalType": "address",
          "name": "guard_",
          "type": "address"
        }
      ],
      "name": "NotIERC165Compliant",
      "type": "error"
    },
    {
      "anonymous": false,
      "inputs": [
        {
          "indexed": true,
          "internalType": "address",
          "name": "previousAvatar",
          "type": "address"
        },
        {
          "indexed": true,
          "internalType": "address",
          "name": "newAvatar",
          "type": "address"
        }
      ],
      "name": "AvatarSet",
      "type": "event"
    },
    {
      "anonymous": false,
      "inputs": [
        {
          "indexed": false,
          "internalType": "address",
          "name": "guard",
          "type": "address"
        }
      ],
      "name": "ChangedGuard",
      "type": "event"
    },
    {
      "anonymous": false,
      "inputs": [
        {
          "indexed": false,
          "internalType": "uint8",
          "name": "version",
          "type": "uint8"
        }
      ],
      "name": "Initialized",
      "type": "event"
    },
    {
      "anonymous": false,
      "inputs": [
        {
          "indexed": true,
          "internalType": "address",
          "name": "previousOwner",
          "type": "address"
        },
        {
          "indexed": true,
          "internalType": "address",
          "name": "newOwner",
          "type": "address"
        }
      ],
      "name": "OwnershipTransferred",
      "type": "event"
    },
    {
      "anonymous": false,
      "inputs": [
        {
          "indexed": true,
          "internalType": "address",
          "name": "previousTarget",
          "type": "address"
        },
        {
          "indexed": true,
          "internalType": "address",
          "name": "newTarget",
          "type": "address"
        }
      ],
      "name": "TargetSet",
      "type": "event"
    },
    {
      "inputs": [],
      "name": "avatar",
      "outputs": [
        {
          "internalType": "address",
          "name": "",
          "type": "address"
        }
      ],
      "stateMutability": "view",
      "type": "function"
    },
    {
      "inputs": [],
      "name": "getGuard",
      "outputs": [
        {
          "internalType": "address",
          "name": "_guard",
          "type": "address"
        }
      ],
      "stateMutability": "view",
      "type": "function"
    },
    {
      "inputs": [],
      "name": "guard",
      "outputs": [
        {
          "internalType": "address",
          "name": "",
          "type": "address"
        }
      ],
      "stateMutability": "view",
      "type": "function"
    },
    {
      "inputs": [],
      "name": "owner",
      "outputs": [
        {
          "internalType": "address",
          "name": "",
          "type": "address"
        }
      ],
      "stateMutability": "view",
      "type": "function"
    },
    {
      "inputs": [],
      "name": "renounceOwnership",
      "outputs": [],
      "stateMutability": "nonpayable",
      "type": "function"
    },
    {
      "inputs": [
        {
          "internalType": "address",
          "name": "_avatar",
          "type": "address"
        }
      ],
      "name": "setAvatar",
      "outputs": [],
      "stateMutability": "nonpayable",
      "type": "function"
    },
    {
      "inputs": [
        {
          "internalType": "address",
          "name": "_guard",
          "type": "address"
        }
      ],
      "name": "setGuard",
      "outputs": [],
      "stateMutability": "nonpayable",
      "type": "function"
    },
    {
      "inputs": [
        {
          "internalType": "address",
          "name": "_target",
          "type": "address"
        }
      ],
      "name": "setTarget",
      "outputs": [],
      "stateMutability": "nonpayable",
      "type": "function"
    },
    {
      "inputs": [
        {
          "internalType": "bytes",
          "name": "initializeParams",
          "type": "bytes"
        }
      ],
      "name": "setUp",
      "outputs": [],
      "stateMutability": "nonpayable",
      "type": "function"
    },
    {
      "inputs": [
        {
          "internalType": "address",
          "name": "oldOwners",
          "type": "address"
        },
        {
          "internalType": "address",
          "name": "newOwners",
          "type": "address"
        }
      ],
      "name": "startRecovery",
      "outputs": [],
      "stateMutability": "nonpayable",
      "type": "function"
    },
    {
      "inputs": [],
      "name": "target",
      "outputs": [
        {
          "internalType": "address",
          "name": "",
          "type": "address"
        }
      ],
      "stateMutability": "view",
      "type": "function"
    },
    {
      "inputs": [
        {
          "internalType": "address",
          "name": "newOwner",
          "type": "address"
        }
      ],
      "name": "transferOwnership",
      "outputs": [],
      "stateMutability": "nonpayable",
      "type": "function"
    }
  ],
  "transactionHash": "0xf9f2516a7d73bb0e0e2772b25ad5e007f290c54fb3af2d2682b63a19c776ba7f",
  "args": [
    "0x0000000000000000000000000000000000000001",
    "0x0000000000000000000000000000000000000001",
    "0x0000000000000000000000000000000000000001"
  ],
  "numDeployments": 1,
  "solcInputHash": "48cefda933ae3810e507ae4042c2f7d1",
  "bytecode": "0x60806040523480156200001157600080fd5b506040516200246f3803806200246f83398181016040528101906200003791906200075c565b60008383836040516020016200005093929190620007c9565b604051602081830303815290604052905062000072816200007c60201b60201c565b5050505062000b69565b60008060019054906101000a900460ff16159050808015620000ae5750600160008054906101000a900460ff1660ff16105b80620000e55750620000c6306200022c60201b60201c565b158015620000e45750600160008054906101000a900460ff1660ff16145b5b62000127576040517f08c379a00000000000000000000000000000000000000000000000000000000081526004016200011e906200088d565b60405180910390fd5b60016000806101000a81548160ff021916908360ff160217905550801562000165576001600060016101000a81548160ff0219169083151502179055505b600080600084806020019051810190620001809190620008f4565b925092509250620001966200024f60201b60201c565b620001a783620002b360201b60201c565b620001b8826200038960201b60201c565b620001c9816200045f60201b60201c565b5050508015620002285760008060016101000a81548160ff0219169083151502179055507f7f26b83ff96e1f2b6a682f133852f6798a09c465da95921460cefb384740249860016040516200021f9190620009aa565b60405180910390a15b5050565b6000808273ffffffffffffffffffffffffffffffffffffffff163b119050919050565b600060019054906101000a900460ff16620002a1576040517f08c379a0000000000000000000000000000000000000000000000000000000008152600401620002989062000a3d565b60405180910390fd5b620002b1620004f560201b60201c565b565b620002c36200056960201b60201c565b6000606660009054906101000a900473ffffffffffffffffffffffffffffffffffffffff16905081606660006101000a81548173ffffffffffffffffffffffffffffffffffffffff021916908373ffffffffffffffffffffffffffffffffffffffff1602179055508173ffffffffffffffffffffffffffffffffffffffff168173ffffffffffffffffffffffffffffffffffffffff167f52ae88b092de36f87fb43fe794eb1381023b9c1bce563a871154022c63dce34260405160405180910390a35050565b620003996200056960201b60201c565b6000606760009054906101000a900473ffffffffffffffffffffffffffffffffffffffff16905081606760006101000a81548173ffffffffffffffffffffffffffffffffffffffff021916908373ffffffffffffffffffffffffffffffffffffffff1602179055508173ffffffffffffffffffffffffffffffffffffffff168173ffffffffffffffffffffffffffffffffffffffff167f90cc2f570a6eb594b1580ea3e41247d2d73a55281889e86bd4ec2fc29c7e62d660405160405180910390a35050565b6200046f6200056960201b60201c565b600073ffffffffffffffffffffffffffffffffffffffff168173ffffffffffffffffffffffffffffffffffffffff1603620004e1576040517f08c379a0000000000000000000000000000000000000000000000000000000008152600401620004d89062000ad5565b60405180910390fd5b620004f281620005fa60201b60201c565b50565b600060019054906101000a900460ff1662000547576040517f08c379a00000000000000000000000000000000000000000000000000000000081526004016200053e9062000a3d565b60405180910390fd5b620005676200055b620006c060201b60201c565b620005fa60201b60201c565b565b62000579620006c060201b60201c565b73ffffffffffffffffffffffffffffffffffffffff166200059f620006c860201b60201c565b73ffffffffffffffffffffffffffffffffffffffff1614620005f8576040517f08c379a0000000000000000000000000000000000000000000000000000000008152600401620005ef9062000b47565b60405180910390fd5b565b6000603360009054906101000a900473ffffffffffffffffffffffffffffffffffffffff16905081603360006101000a81548173ffffffffffffffffffffffffffffffffffffffff021916908373ffffffffffffffffffffffffffffffffffffffff1602179055508173ffffffffffffffffffffffffffffffffffffffff168173ffffffffffffffffffffffffffffffffffffffff167f8be0079c531659141344cd1fd0a4f28419497f9722a3daafe3b4186f6b6457e060405160405180910390a35050565b600033905090565b6000603360009054906101000a900473ffffffffffffffffffffffffffffffffffffffff16905090565b600080fd5b600073ffffffffffffffffffffffffffffffffffffffff82169050919050565b60006200072482620006f7565b9050919050565b620007368162000717565b81146200074257600080fd5b50565b60008151905062000756816200072b565b92915050565b600080600060608486031215620007785762000777620006f2565b5b6000620007888682870162000745565b93505060206200079b8682870162000745565b9250506040620007ae8682870162000745565b9150509250925092565b620007c38162000717565b82525050565b6000606082019050620007e06000830186620007b8565b620007ef6020830185620007b8565b620007fe6040830184620007b8565b949350505050565b600082825260208201905092915050565b7f496e697469616c697a61626c653a20636f6e747261637420697320616c72656160008201527f647920696e697469616c697a6564000000000000000000000000000000000000602082015250565b600062000875602e8362000806565b9150620008828262000817565b604082019050919050565b60006020820190508181036000830152620008a88162000866565b9050919050565b6000620008bc82620006f7565b9050919050565b620008ce81620008af565b8114620008da57600080fd5b50565b600081519050620008ee81620008c3565b92915050565b60008060006060848603121562000910576200090f620006f2565b5b60006200092086828701620008dd565b93505060206200093386828701620008dd565b92505060406200094686828701620008dd565b9150509250925092565b6000819050919050565b600060ff82169050919050565b6000819050919050565b6000620009926200098c620009868462000950565b62000967565b6200095a565b9050919050565b620009a48162000971565b82525050565b6000602082019050620009c1600083018462000999565b92915050565b7f496e697469616c697a61626c653a20636f6e7472616374206973206e6f74206960008201527f6e697469616c697a696e67000000000000000000000000000000000000000000602082015250565b600062000a25602b8362000806565b915062000a3282620009c7565b604082019050919050565b6000602082019050818103600083015262000a588162000a16565b9050919050565b7f4f776e61626c653a206e6577206f776e657220697320746865207a65726f206160008201527f6464726573730000000000000000000000000000000000000000000000000000602082015250565b600062000abd60268362000806565b915062000aca8262000a5f565b604082019050919050565b6000602082019050818103600083015262000af08162000aae565b9050919050565b7f4f776e61626c653a2063616c6c6572206973206e6f7420746865206f776e6572600082015250565b600062000b2f60208362000806565b915062000b3c8262000af7565b602082019050919050565b6000602082019050818103600083015262000b628162000b20565b9050919050565b6118f68062000b796000396000f3fe608060405234801561001057600080fd5b50600436106100b45760003560e01c8063a4f9edbf11610071578063a4f9edbf14610155578063c89ec68a14610171578063c91063891461018d578063d4b83992146101ab578063e19a9dd9146101c9578063f2fde38b146101e5576100b4565b8063086cfca8146100b95780635aef7de6146100d5578063715018a6146100f3578063776d1a01146100fd5780637ceab3b1146101195780638da5cb5b14610137575b600080fd5b6100d360048036038101906100ce9190610e80565b610201565b005b6100dd6102cf565b6040516100ea9190610ebc565b60405180910390f35b6100fb6102f5565b005b61011760048036038101906101129190610e80565b610309565b005b6101216103d7565b60405161012e9190610ebc565b60405180910390f35b61013f6103fd565b60405161014c9190610ebc565b60405180910390f35b61016f600480360381019061016a919061101d565b610427565b005b61018b60048036038101906101869190611066565b6105a3565b005b6101956105f2565b6040516101a29190610ebc565b60405180910390f35b6101b361061c565b6040516101c09190610ebc565b60405180910390f35b6101e360048036038101906101de9190610e80565b610642565b005b6101ff60048036038101906101fa9190610e80565b6107f7565b005b61020961087a565b6000606660009054906101000a900473ffffffffffffffffffffffffffffffffffffffff16905081606660006101000a81548173ffffffffffffffffffffffffffffffffffffffff021916908373ffffffffffffffffffffffffffffffffffffffff1602179055508173ffffffffffffffffffffffffffffffffffffffff168173ffffffffffffffffffffffffffffffffffffffff167f52ae88b092de36f87fb43fe794eb1381023b9c1bce563a871154022c63dce34260405160405180910390a35050565b606660009054906101000a900473ffffffffffffffffffffffffffffffffffffffff1681565b6102fd61087a565b61030760006108f8565b565b61031161087a565b6000606760009054906101000a900473ffffffffffffffffffffffffffffffffffffffff16905081606760006101000a81548173ffffffffffffffffffffffffffffffffffffffff021916908373ffffffffffffffffffffffffffffffffffffffff1602179055508173ffffffffffffffffffffffffffffffffffffffff168173ffffffffffffffffffffffffffffffffffffffff167f90cc2f570a6eb594b1580ea3e41247d2d73a55281889e86bd4ec2fc29c7e62d660405160405180910390a35050565b606560009054906101000a900473ffffffffffffffffffffffffffffffffffffffff1681565b6000603360009054906101000a900473ffffffffffffffffffffffffffffffffffffffff16905090565b60008060019054906101000a900460ff161590508080156104585750600160008054906101000a900460ff1660ff16105b806104855750610467306109be565b1580156104845750600160008054906101000a900460ff1660ff16145b5b6104c4576040517f08c379a00000000000000000000000000000000000000000000000000000000081526004016104bb90611129565b60405180910390fd5b60016000806101000a81548160ff021916908360ff1602179055508015610501576001600060016101000a81548160ff0219169083151502179055505b60008060008480602001905181019061051a9190611187565b9250925092506105286109e1565b61053183610201565b61053a82610309565b610543816107f7565b505050801561059f5760008060016101000a81548160ff0219169083151502179055507f7f26b83ff96e1f2b6a682f133852f6798a09c465da95921460cefb38474024986001604051610596919061122c565b60405180910390a15b5050565b6105af60018383610a3a565b6105ee576040517f08c379a00000000000000000000000000000000000000000000000000000000081526004016105e590611293565b60405180910390fd5b5050565b6000606560009054906101000a900473ffffffffffffffffffffffffffffffffffffffff16905090565b606760009054906101000a900473ffffffffffffffffffffffffffffffffffffffff1681565b61064a61087a565b600073ffffffffffffffffffffffffffffffffffffffff168173ffffffffffffffffffffffffffffffffffffffff161461075a578073ffffffffffffffffffffffffffffffffffffffff166301ffc9a77fe6d7a83a000000000000000000000000000000000000000000000000000000006040518263ffffffff1660e01b81526004016106d791906112ee565b602060405180830381865afa1580156106f4573d6000803e3d6000fd5b505050506040513d601f19601f820116820180604052508101906107189190611341565b61075957806040517fb16ea67e0000000000000000000000000000000000000000000000000000000081526004016107509190610ebc565b60405180910390fd5b5b80606560006101000a81548173ffffffffffffffffffffffffffffffffffffffff021916908373ffffffffffffffffffffffffffffffffffffffff1602179055507f1151116914515bc0891ff9047a6cb32cf902546f83066499bcf8ba33d2353fa2606560009054906101000a900473ffffffffffffffffffffffffffffffffffffffff166040516107ec9190610ebc565b60405180910390a150565b6107ff61087a565b600073ffffffffffffffffffffffffffffffffffffffff168173ffffffffffffffffffffffffffffffffffffffff160361086e576040517f08c379a0000000000000000000000000000000000000000000000000000000008152600401610865906113e0565b60405180910390fd5b610877816108f8565b50565b610882610ace565b73ffffffffffffffffffffffffffffffffffffffff166108a06103fd565b73ffffffffffffffffffffffffffffffffffffffff16146108f6576040517f08c379a00000000000000000000000000000000000000000000000000000000081526004016108ed9061144c565b60405180910390fd5b565b6000603360009054906101000a900473ffffffffffffffffffffffffffffffffffffffff16905081603360006101000a81548173ffffffffffffffffffffffffffffffffffffffff021916908373ffffffffffffffffffffffffffffffffffffffff1602179055508173ffffffffffffffffffffffffffffffffffffffff168173ffffffffffffffffffffffffffffffffffffffff167f8be0079c531659141344cd1fd0a4f28419497f9722a3daafe3b4186f6b6457e060405160405180910390a35050565b6000808273ffffffffffffffffffffffffffffffffffffffff163b119050919050565b600060019054906101000a900460ff16610a30576040517f08c379a0000000000000000000000000000000000000000000000000000000008152600401610a27906114de565b60405180910390fd5b610a38610ad6565b565b6000610ac5606660009054906101000a900473ffffffffffffffffffffffffffffffffffffffff166000868686604051602401610a79939291906114fe565b60405160208183030381529060405263e318b52b60e01b6020820180517bffffffffffffffffffffffffffffffffffffffffffffffffffffffff83818316178352505050506000610b37565b90509392505050565b600033905090565b600060019054906101000a900460ff16610b25576040517f08c379a0000000000000000000000000000000000000000000000000000000008152600401610b1c906114de565b60405180910390fd5b610b35610b30610ace565b6108f8565b565b6000610b4585858585610b52565b5080915050949350505050565b600060606000606560009054906101000a900473ffffffffffffffffffffffffffffffffffffffff169050600073ffffffffffffffffffffffffffffffffffffffff168173ffffffffffffffffffffffffffffffffffffffff1614610d52578073ffffffffffffffffffffffffffffffffffffffff166375f0bb52888888886000806000806000336040518b63ffffffff1660e01b8152600401610bff9a999897969594939291906116b4565b600060405180830381600087803b158015610c1957600080fd5b505af1158015610c2d573d6000803e3d6000fd5b50505050606760009054906101000a900473ffffffffffffffffffffffffffffffffffffffff1673ffffffffffffffffffffffffffffffffffffffff16635229073f888888886040518563ffffffff1660e01b8152600401610c92949392919061176b565b6000604051808303816000875af1158015610cb1573d6000803e3d6000fd5b505050506040513d6000823e3d601f19601f82011682018060405250810190610cda9190611827565b80935081945050508073ffffffffffffffffffffffffffffffffffffffff166393271368846040518263ffffffff1660e01b8152600401610d1b9190611899565b600060405180830381600087803b158015610d3557600080fd5b505af1158015610d49573d6000803e3d6000fd5b50505050610e04565b606760009054906101000a900473ffffffffffffffffffffffffffffffffffffffff1673ffffffffffffffffffffffffffffffffffffffff16635229073f888888886040518563ffffffff1660e01b8152600401610db3949392919061176b565b6000604051808303816000875af1158015610dd2573d6000803e3d6000fd5b505050506040513d6000823e3d601f19601f82011682018060405250810190610dfb9190611827565b80935081945050505b5094509492505050565b6000604051905090565b600080fd5b600080fd5b600073ffffffffffffffffffffffffffffffffffffffff82169050919050565b6000610e4d82610e22565b9050919050565b610e5d81610e42565b8114610e6857600080fd5b50565b600081359050610e7a81610e54565b92915050565b600060208284031215610e9657610e95610e18565b5b6000610ea484828501610e6b565b91505092915050565b610eb681610e42565b82525050565b6000602082019050610ed16000830184610ead565b92915050565b600080fd5b600080fd5b6000601f19601f8301169050919050565b7f4e487b7100000000000000000000000000000000000000000000000000000000600052604160045260246000fd5b610f2a82610ee1565b810181811067ffffffffffffffff82111715610f4957610f48610ef2565b5b80604052505050565b6000610f5c610e0e565b9050610f688282610f21565b919050565b600067ffffffffffffffff821115610f8857610f87610ef2565b5b610f9182610ee1565b9050602081019050919050565b82818337600083830152505050565b6000610fc0610fbb84610f6d565b610f52565b905082815260208101848484011115610fdc57610fdb610edc565b5b610fe7848285610f9e565b509392505050565b600082601f83011261100457611003610ed7565b5b8135611014848260208601610fad565b91505092915050565b60006020828403121561103357611032610e18565b5b600082013567ffffffffffffffff81111561105157611050610e1d565b5b61105d84828501610fef565b91505092915050565b6000806040838503121561107d5761107c610e18565b5b600061108b85828601610e6b565b925050602061109c85828601610e6b565b9150509250929050565b600082825260208201905092915050565b7f496e697469616c697a61626c653a20636f6e747261637420697320616c72656160008201527f647920696e697469616c697a6564000000000000000000000000000000000000602082015250565b6000611113602e836110a6565b915061111e826110b7565b604082019050919050565b6000602082019050818103600083015261114281611106565b9050919050565b600061115482610e22565b9050919050565b61116481611149565b811461116f57600080fd5b50565b6000815190506111818161115b565b92915050565b6000806000606084860312156111a05761119f610e18565b5b60006111ae86828701611172565b93505060206111bf86828701611172565b92505060406111d086828701611172565b9150509250925092565b6000819050919050565b600060ff82169050919050565b6000819050919050565b600061121661121161120c846111da565b6111f1565b6111e4565b9050919050565b611226816111fb565b82525050565b6000602082019050611241600083018461121d565b92915050565b7f4d6f64756c65207472616e73616374696f6e206661696c656400000000000000600082015250565b600061127d6019836110a6565b915061128882611247565b602082019050919050565b600060208201905081810360008301526112ac81611270565b9050919050565b60007fffffffff0000000000000000000000000000000000000000000000000000000082169050919050565b6112e8816112b3565b82525050565b600060208201905061130360008301846112df565b92915050565b60008115159050919050565b61131e81611309565b811461132957600080fd5b50565b60008151905061133b81611315565b92915050565b60006020828403121561135757611356610e18565b5b60006113658482850161132c565b91505092915050565b7f4f776e61626c653a206e6577206f776e657220697320746865207a65726f206160008201527f6464726573730000000000000000000000000000000000000000000000000000602082015250565b60006113ca6026836110a6565b91506113d58261136e565b604082019050919050565b600060208201905081810360008301526113f9816113bd565b9050919050565b7f4f776e61626c653a2063616c6c6572206973206e6f7420746865206f776e6572600082015250565b60006114366020836110a6565b915061144182611400565b602082019050919050565b6000602082019050818103600083015261146581611429565b9050919050565b7f496e697469616c697a61626c653a20636f6e7472616374206973206e6f74206960008201527f6e697469616c697a696e67000000000000000000000000000000000000000000602082015250565b60006114c8602b836110a6565b91506114d38261146c565b604082019050919050565b600060208201905081810360008301526114f7816114bb565b9050919050565b60006060820190506115136000830186610ead565b6115206020830185610ead565b61152d6040830184610ead565b949350505050565b6000819050919050565b61154881611535565b82525050565b600081519050919050565b600082825260208201905092915050565b60005b8381101561158857808201518184015260208101905061156d565b60008484015250505050565b600061159f8261154e565b6115a98185611559565b93506115b981856020860161156a565b6115c281610ee1565b840191505092915050565b7f4e487b7100000000000000000000000000000000000000000000000000000000600052602160045260246000fd5b6002811061160d5761160c6115cd565b5b50565b600081905061161e826115fc565b919050565b600061162e82611610565b9050919050565b61163e81611623565b82525050565b6000819050919050565b600061166961166461165f84611644565b6111f1565b611535565b9050919050565b6116798161164e565b82525050565b61168881611149565b82525050565b50565b600061169e600083611559565b91506116a98261168e565b600082019050919050565b6000610160820190506116ca600083018d610ead565b6116d7602083018c61153f565b81810360408301526116e9818b611594565b90506116f8606083018a611635565b6117056080830189611670565b61171260a0830188611670565b61171f60c0830187611670565b61172c60e0830186610ead565b61173a61010083018561167f565b81810361012083015261174c81611691565b905061175c610140830184610ead565b9b9a5050505050505050505050565b60006080820190506117806000830187610ead565b61178d602083018661153f565b818103604083015261179f8185611594565b90506117ae6060830184611635565b95945050505050565b60006117ca6117c584610f6d565b610f52565b9050828152602081018484840111156117e6576117e5610edc565b5b6117f184828561156a565b509392505050565b600082601f83011261180e5761180d610ed7565b5b815161181e8482602086016117b7565b91505092915050565b6000806040838503121561183e5761183d610e18565b5b600061184c8582860161132c565b925050602083015167ffffffffffffffff81111561186d5761186c610e1d565b5b611879858286016117f9565b9150509250929050565b6000815250565b61189381611309565b82525050565b60006040820190506118ad60008301611883565b6118ba602083018461188a565b9291505056fea26469706673582212204139260a5d408303aee1aa6eb19829a3c4e09129ce516ab6281ab463b6b67c8964736f6c63430008140033",
  "devdoc": {
    "events": {
      "AvatarSet(address,address)": {
        "details": "Emitted each time the avatar is set."
      },
      "Initialized(uint8)": {
        "details": "Triggered when the contract has been initialized or reinitialized."
      },
      "TargetSet(address,address)": {
        "details": "Emitted each time the Target is set."
      }
    },
    "kind": "dev",
    "methods": {
      "owner()": {
        "details": "Returns the address of the current owner."
      },
      "renounceOwnership()": {
        "details": "Leaves the contract without owner. It will not be possible to call `onlyOwner` functions. Can only be called by the current owner. NOTE: Renouncing ownership will leave the contract without an owner, thereby disabling any functionality that is only available to the owner."
      },
      "setAvatar(address)": {
        "details": "Sets the avatar to a new avatar (`newAvatar`)."
      },
      "setGuard(address)": {
        "details": "Set a guard that checks transactions before execution.",
        "params": {
          "_guard": "The address of the guard to be used or the 0 address to disable the guard."
        }
      },
      "setTarget(address)": {
        "details": "Sets the target to a new target (`newTarget`)."
      },
      "transferOwnership(address)": {
        "details": "Transfers ownership of the contract to a new account (`newOwner`). Can only be called by the current owner."
      }
    },
    "version": 1
  },
  "userdoc": {
    "errors": {
      "NotIERC165Compliant(address)": [
        {
          "notice": "`guard_` does not implement IERC165."
        }
      ]
    },
    "kind": "user",
    "methods": {
      "setAvatar(address)": {
        "notice": "Can only be called by the current owner."
      },
      "setTarget(address)": {
        "notice": "Can only be called by the current owner."
      }
    },
    "version": 1
  },
  "storageLayout": {
    "storage": [
      {
        "astId": 632,
        "contract": "contracts/SwapOwnerModule.sol:SwapOwnerModule",
        "label": "_initialized",
        "offset": 0,
        "slot": "0",
        "type": "t_uint8"
      },
      {
        "astId": 635,
        "contract": "contracts/SwapOwnerModule.sol:SwapOwnerModule",
        "label": "_initializing",
        "offset": 1,
        "slot": "0",
        "type": "t_bool"
      },
      {
        "astId": 1165,
        "contract": "contracts/SwapOwnerModule.sol:SwapOwnerModule",
        "label": "__gap",
        "offset": 0,
        "slot": "1",
        "type": "t_array(t_uint256)50_storage"
      },
      {
        "astId": 504,
        "contract": "contracts/SwapOwnerModule.sol:SwapOwnerModule",
        "label": "_owner",
        "offset": 0,
        "slot": "51",
        "type": "t_address"
      },
      {
        "astId": 624,
        "contract": "contracts/SwapOwnerModule.sol:SwapOwnerModule",
        "label": "__gap",
        "offset": 0,
        "slot": "52",
        "type": "t_array(t_uint256)49_storage"
      },
      {
        "astId": 311,
        "contract": "contracts/SwapOwnerModule.sol:SwapOwnerModule",
        "label": "guard",
        "offset": 0,
        "slot": "101",
        "type": "t_address"
      },
      {
        "astId": 18,
        "contract": "contracts/SwapOwnerModule.sol:SwapOwnerModule",
        "label": "avatar",
        "offset": 0,
        "slot": "102",
        "type": "t_address"
      },
      {
        "astId": 21,
        "contract": "contracts/SwapOwnerModule.sol:SwapOwnerModule",
        "label": "target",
        "offset": 0,
        "slot": "103",
        "type": "t_address"
      }
    ],
    "types": {
      "t_address": {
        "encoding": "inplace",
        "label": "address",
        "numberOfBytes": "20"
      },
      "t_array(t_uint256)49_storage": {
        "base": "t_uint256",
        "encoding": "inplace",
        "label": "uint256[49]",
        "numberOfBytes": "1568"
      },
      "t_array(t_uint256)50_storage": {
        "base": "t_uint256",
        "encoding": "inplace",
        "label": "uint256[50]",
        "numberOfBytes": "1600"
      },
      "t_bool": {
        "encoding": "inplace",
        "label": "bool",
        "numberOfBytes": "1"
      },
      "t_uint256": {
        "encoding": "inplace",
        "label": "uint256",
        "numberOfBytes": "32"
      },
      "t_uint8": {
        "encoding": "inplace",
        "label": "uint8",
        "numberOfBytes": "1"
      }
    }
  }
}